:020000040800F2
:10000000FF3F002025400108753400086D400108BD
:1000100077340008793400087B34000800000000C1
:100020000000000000000000000000006D4001081A
:100030007D340008000000006D40010845130108F0
:100040006D4001086D4001086D4001086D400108D8
:100050006D4001086D400108C7360008D73600081A
:10006000E7360008F7360008073700086D4001083A
:100070006D4001086D4001086D4001086D400108A8
:100080006D4001086D4001086D4001086D40010898
:100090006D4001086D4001086D40010817370008E8
:1000A000000000006D4001086D4001086D4001082E
:1000B0006D4001086D4001086D4001086D40010868
:1000C0006D4001086D4001086D4001086D40010858
:1000D0006D400108ED4600086D400108F946000832
:1000E0004337000815A600086D4001086D4001085F
:1000F0006D4001080000000000000000000000004A
:1001000000000000000000000000000000000000EF
:1001100000000000000000000000000000000000DF
:1001200000000000000000000000000000000000CF
:0C01300000000000000000005FF808F173
:1001400010B5054C237833B9044B13B10448AFF311
:1001500000800123237010BD980A002000000000D9
:10016000F8500108084B10B51BB108490848AFF317
:1001700000800848036803B910BD074B002BFBD073
:10018000BDE81040184700BF000000009C0A002096
:10019000F8500108980A002000000000000000004C
:1001A00010B50849002351F83340DA00844203D8DF
:1001B0000A449468A04203D30133152BF3D1FEE720
:1001C000107910BD10510108054B93F8E9202AB9A8
:1001D00093F8142112B9012283F81421704700BF4B
:1001E000C01E0020014B93F8E8007047C01E00209D
:1001F00037B50E4D0024234601221D2128460194C7
:10020000009411F079FA012010F058F801230193BD
:1002100028460094234622461D2111F06DFA06203F
:1002200003B0BDE8304010F049B800BFC01E002048
:1002300070B506460C46154600210C4811F076FABA
:1002400046F080010A4810F075F9013D661E2C4405
:10025000A64205D016F8011F054810F06BF9F7E724
:1002600001210248BDE8704011F060BA9C1F0020D7
:10027000201F002007B502AB03F8011D012219461B
:10028000FFF7D6FF03B05DF804FB114B10B5C3F8C0
:10029000EC0012F03BFE0CA3D3E9002312F0D6FFD2
:1002A00013F06CF90446C0F307410620FFF7E2FFA4
:1002B000C4F307210720FFF7DDFFE1B20820BDE806
:1002C0001040FFF7D7BF00BF0000000080844E4001
:1002D000C01E002070B506460C46154600210D488C
:1002E00011F024FA06F07F010B4810F023F9013DCC
:1002F000661E2C44A64206D00021074810F01AF9C9
:1003000006F8010FF6E701210248BDE8704011F040
:100310000DBA00BF9C1F0020201F002007B501223E
:100320000DF10701FFF7D6FF9DF8070003B05DF858
:1003300004FB38B50920FFF7F1FF05460620FFF75B
:10034000EDFF04460720FFF7E9FF000240EA0444FE
:100350000820FFF7E3FF204312F0D8FD1AA3D3E9EA
:10036000002312F049FE13F009F900210446092088
:10037000FFF780FF3B20FFF7D1FF40F04001C9B2FB
:100380003B20FFF777FF3B20FFF7C8FF8206FAD438
:100390000F48FFF77AFF3B20FFF7C0FF40F0400116
:1003A000C9B23B20FFF766FF3B20FFF7B7FF83068C
:1003B000FAD429460920FFF75DFF2046BDE8384002
:1003C000FFF763BFAFF300800000000080844E4061
:1003D00000A1BC332DE9F84F884610B1012854D054
:1003E000DBE0714C2720B4F80451FFF797FF20F0B1
:1003F000F8000130284412F099FD0B4694F80611DC
:100400000246002009B9694900E0002112F042FCCF
:10041000064630200F46FFF781FF30F0F9033246E1
:100420003B460CBF00216149002012F033FC064618
:1004300040460F4612F07AFD02460B4630463946DA
:1004400012F028FC0B4694F808110246002009B966
:10045000002101E04FF0804112F01CFC0022544BBF
:1004600012F0CAFD0646D4F800010F4612F04EFD08
:1004700002460B463046394612F0E8FE00224D4B4C
:1004800012F0BAFD13F07CFF83E0474CD4F828311A
:10049000073B022B05D8484A02EBC303D3E92C677C
:1004A00001E000260027D4F82C510120A84012F0CA
:1004B0003DFD02460B463046394612F0C7FE024665
:1004C0000B460020394912F0C1FE06460F46B4F82B
:1004D000320112F02BFD0022384B12F0DBFB3246CA
:1004E0003B4612F089FD94F836318246A800C0F1EF
:1004F0001C0000EB031094F8343100EBC800002B13
:1005000014BF14230023C01A8B4612F0FFFC94F88A
:1005100030318046002B14BF02200020281A8000B2
:10052000894612F0F3FC02460B464046494612F05B
:100530008DFE13F015FE8046894694F83101043093
:1005400012F0F4FC42464B4612F056FD0022002306
:1005500004460D4612F0E0FF30B10022144B204655
:10056000294612F097FB01E01149002032463B4634
:1005700012F042FD52465B4612F08CFB00220D4BFE
:1005800012F03AFD06A3D3E9002312F083FB13F027
:100590006FFE12F0F3FFBDE8F88F0020BDE8F88F82
:1005A0002B8716D9CEF7EF3FC01E00200000F03F8A
:1005B0000000204000408F40105101080000114011
:1005C00008B510B1012807D016E01120FFF7A6FEEC
:1005D000C0F3470040420DE0094B1B20D3F8EC204C
:1005E000084B9A4203D9FFF799FE9D3802E0FFF7C6
:1005F00095FEA43800B208BD4FF0FF3008BD00BF23
:10060000C01E002040DD4A1F10B5044618B9012065
:100610000CF062FC05E000200CF05EFC20460CF0C3
:1006200069FC0120FFF77AFE00F0F8012143012068
:10063000BDE81040FFF71EBE08B5074809F0C8FA2C
:10064000064809F0C5FA0020FFF7DEFF044B002240
:1006500083F8E82008BD00BF0C200020981E002071
:10066000C01E002008B5074809F0B2FA064809F094
:10067000AFFA0120FFF7C8FF044B002283F8E820FF
:1006800008BD00BF0C200020981E0020C01E0020C6
:10069000F8B5814C074694F8E95015B1012D29D0E1
:1006A000CCE0402094F80A61FFF738FE00F0030127
:1006B00041F00C014020FFF7DDFD4120FFF72EFE49
:1006C00060F03E01C9B24120FFF7D4FD3520FFF7AD
:1006D00025FE00F03F0084F822011E210D20FFF7C7
:1006E000C9FD84F8145184F81551A4F82051A4F8D8
:1006F0001E51A4E094F8393133204BB1FFF70EFEC0
:1007000040F04101C9B23320FFF7B4FD192109E0DF
:10071000FFF704FE00F0BE0141F001013320FFF7B6
:10072000A9FD1D213B20FFF7A5FDD4F8283131207C
:10073000082B57D8FFF7F2FD00F07F013120FFF7BB
:1007400099FD00213020FFF795FD534BD3F8283158
:10075000082B4FD8DFE803F0050F19232D3743434B
:1007600043002F204821FFF785FDD4F8EC0000F569
:10077000F450023030E02F204421FFF77BFDD4F805
:10078000EC0000F52250343026E02F204421FFF702
:1007900071FDD4F8EC0000F5745004301CE02F20FB
:1007A0004421FFF767FDD4F8EC0000F5A2405E306D
:1007B00012E02F204421FFF75DFDD4F8EC0000F596
:1007C000F440123008E02F204421FFF753FDD4F805
:1007D000EC0000F52240C630FFF757FD0AE040214B
:1007E0002F2005E0FFF79AFD60F07F01C9B23120AC
:1007F000FFF740FD94F8373194F83A614BB11D2171
:100800001120FFF737FD4020FFF788FD00F033018E
:1008100008E01F211120FFF72DFD4020FFF77EFD8E
:1008200000F03F014020FFF725FD00210F20FFF7DA
:1008300021FD00210D20FFF71DFD00E000264FF4F3
:1008400080720021154813F029FB012384F8E83059
:1008500037B11348394609F006FA114809F043F94F
:1008600094F8E93073B90520FFF7CEFE96B90A4B2C
:100870000C48D3F8101109F0F6F9BDE8F840094822
:1008800009F031B90EB1052000E00620BDE8F840BE
:10089000FFF7BABEF8BD00BFC01E0020B40A00209A
:1008A0000C200020AC1E002010B5254C0146254828
:1008B00009F0D9F994F8E93013B1012B1AD034E0DA
:1008C0004020FFF72BFD00F0030141F01001402014
:1008D000FFF7D0FC4120FFF721FD00F03E01412051
:1008E000FFF7C8FC3520FFF719FD00F03F0084F842
:1008F00022011AE094F837314BB1F5211120FFF7AE
:10090000B9FC4020FFF70AFD00F0330108E0F721B1
:100910001120FFF7AFFC4020FFF700FD00F03F0182
:1009200041F040014020FFF7A5FC0223054884F870
:10093000E83009F0D8F8BDE810400320FFF764BEA6
:10094000C01E0020981E002010B50D4C94F8E93010
:10095000012B13D1FA211120FFF78CFC4020FFF767
:10096000DDFC00F0FC014020FFF784FC032384F849
:10097000E8300720BDE81040FFF746BE10BD00BFBD
:10098000C01E002010B504460120FFF7C7FC1B4B1A
:1009900010F0800F14BF0122002283F8E92093F8A1
:1009A000E930A34229D0154B012C83F8E9400FD040
:1009B000FFF742FE0120FFF7B1FC00F07F010120AC
:1009C000FFF758FC00214020FFF754FC30210FE0D6
:1009D000FFF732FE2046FFF7A1FC60F07F01C9B2AD
:1009E0002046FFF747FC00214020FFF743FC002191
:1009F0004120BDE81040FFF73DBC10BDC01E0020E7
:100A000038B5174B1749C3F80001174809F064F8C7
:100A10001449164809F060F81249154809F05CF8C5
:100A2000FFF7E6FBFFF785FC0020FFF7EDFD11481F
:100A30000CF06CF9104D0024285DFFF7A3FF2B1973
:100A4000997858780334FFF715FC302CF4D1002046
:100A5000FFF798FF094B002283F8E82038BD00BF5C
:100A6000B40A0020E5160008981E00200C20002083
:100A7000AC1E002000000020D8510108C01E00203C
:100A8000F8B50D4617461C460646FFF77BFF28467D
:100A9000FFF7FBFB0520FFF7B7FD01200FF00EFC71
:100AA00009F0EBF80546284609F0E9F8A04206D21D
:100AB0003046FFF785FDB842F5DD002400E0012453
:100AC000FFF7BAFD2046F8BD38B50120FFF75AFF01
:100AD000FF211120FFF7CEFB00240520FFF794FD36
:100AE000254601200FF0EAFB2C20FFF717FC00F051
:100AF0000100A0400134202C45EA0005F1D1FFF7A8
:100B00009BFD284638BD2DE9F04F044689B000937F
:100B1000BDF850308A4604939DF864309DF860100B
:100B2000029315469DF86C309DF868200593069257
:100B3000DDF84890BDF84C709DF854809DF858B091
:100B40009DF85C600791FFF71DFF059B069A24B195
:100B5000012C079900F0818046E1A74C284684F8D3
:100B6000092184F80A31C4F8F8A0C4F80051C4F887
:100B7000FC9084F8068184F807B184F80861A4F831
:100B8000047112F0C3F9CDE9000102460B460020C2
:100B90009A4912F05BFB0022994B12F02DFACDE935
:100BA0000201049812F0C2F902460B46DDE9020187
:100BB00012F022FA0022934B12F01EFA12F0DEFC21
:100BC000DDE90023C4F8100189A1D1E9000112F088
:100BD0003DFB12F0D3FC84B2210A0220FFF74AFB4E
:100BE000E1B20320FFF746FB5046FFF7D9FA014672
:100BF0001220FFF73FFB4846FFF7D2FA01461320C9
:100C0000FFF738FB390A2520FFF734FBF9B226201D
:100C1000FFF730FBB8F1000F01D0594600E0FF218B
:100C20003220FFF727FB3020FFF778FBB8F1000FE9
:100C300000F06F0014BF00216FF07F0140EA061042
:100C40000143C9B23020FFF715FB3120FFF766FBE7
:100C500040F04001C9B23120BAE0BAF1020F00D928
:100C6000FEE7654C9DF8000084F837119DF80810E8
:100C70000AF107090C2DC4F82891C4F82C5184F806
:100C80003101A4F8327184F8348184F835B184F8E4
:100C9000366184F8381184F8392184F83A3100F249
:100CA0009C80052D0ED9B9F1070F04D1A5F10B03D6
:100CB000012B08D804E0B9F1080F04D10C2D02D1A2
:100CC000012301E0062500231D2084F83031FFF7C1
:100CD00025FB009B1D2048EA430141EA0911C9B2E6
:100CE000FFF7C8FA1E20FFF719FB049B00F008006D
:100CF000C3F3012141EA8601014341EA0511C9B26A
:100D00001E20FFF7B7FA2620FFF708FB94F83011F2
:100D100020F0080040EAC101C9B22620FFF7AAFA74
:100D20009DF810101F20FFF7A5FA390A2020FFF7C1
:100D3000A1FAF9B22120FFF79DFAB8F1000F03D014
:100D400059462220FFF796FA94F8373173B14420C0
:100D5000FFF7E4FA60F07F01C9B24420FFF78AFA96
:100D6000254B242093F83811FFF784FAB9F1090FC5
:100D700010D1D4F8EC20244B02219A424FF03600D7
:100D800003D9FFF777FA642102E0FFF773FA7F21B6
:100D90003A2001E003213620FFF76CFA062D4FF0D0
:100DA00031000AD1FFF7BAFA00F0F80141F005016D
:100DB0003120FFF75FFA0C2109E0FFF7AFFA00F0EE
:100DC000F80141F003013120FFF754FA0A213720DE
:100DD00009B0BDE8F04FFFF74DBABAF1020F4FF07E
:100DE0000C053FF470AF6BE709B0BDE8F08F00BFB2
:100DF0000000000080847E41C01E00200000F03F03
:100E00000000204000408F4040DD4A1F2DE9F04F98
:100E10008946834687B098469DF854309DF85C100B
:100E200001939DF8583005920293189B0491039307
:100E3000109C9DF844A0BDF848709DF84C509DF85A
:100E40005060FFF79FFD48460BF0CCFF039B0499D1
:100E5000059ABBF1000F03D0BBF1010F5FD0F9E0A1
:100E60008348C0F8F420C0F8F880C0F8004180F84A
:100E70000861C0F80C3180F8F090A0F8047180F897
:100E8000065180F80911104612F040F874A3D3E916
:100E9000002312F0DBF912F071FB1FFA80F84FEA21
:100EA00018210420FFF7E6F95FFA88F10520FFF723
:100EB000E1F9204612F02AF802460B466AA1D1E970
:100EC000000112F0C3F912F059FB84B2210A02208A
:100ED000FFF7D0F9E1B20320FFF7CCF9390A25205A
:100EE000FFF7C8F9F9B22620FFF7C4F93020FFF761
:100EF00015FA002D00F06F0014BF00216FF07F0184
:100F000040EA06163143C9B23020FFF7B3F9312069
:100F1000FFF704FA40F04001C9B231208FE0544A93
:100F2000B8F1020F82F82491914600D9FEE708F14A
:100F3000070BC2F828B1C2F82C4182F831A1A2F8FF
:100F4000327182F834519DF804200C2C89F8372135
:100F50009DF8082089F8366189F8382189F8391117
:100F6000C9F83C3170D8052C0ED9BBF1070F04D15C
:100F7000A4F10B03012B08D804E0BBF1080F04D146
:100F80000C2C02D1012301E00624002389F8303122
:100F9000019B6BB14420FFF7C1F960F07F01C9B23A
:100FA0004420FFF767F999F838112420FFF762F918
:100FB0001D2045EA4A05FFF7B1F945EA0B11C9B210
:100FC0001D20FFF757F91E20FFF7A8F9B10000F028
:100FD0000B0041EA04110143C9B21E20FFF74AF990
:100FE0002620FFF79BF999F8301120F0080040EA1D
:100FF000C101C9B22620FFF73DF9390A2020FFF7C9
:1010000039F92120F9B2FFF735F9062C4FF03100FC
:101010000AD1FFF783F900F0F80141F00501312012
:10102000FFF728F90C2109E0FFF778F900F0F80143
:1010300041F003013120FFF71DF90A21372007B0E5
:10104000BDE8F04FFFF716B9B8F1020F4FF00C04EE
:101050009BD097E707B0BDE8F08F00BFAFF30080EB
:101060000000000080844E400000000080847E412B
:10107000C01E002030B50D464FF47A7454438BB037
:10108000FFF703F90522002302924FF496520793CB
:1010900006930593049303930193184629460092FF
:1010A00008941A46FFF7B2FE3120FFF737F900F037
:1010B000BF013120FFF7DEF80C4DF0214020FFF793
:1010C000D9F8A0214120FFF7D5F82146284608F09D
:1010D000CAFD074B0222284683F8E82008F003FDEA
:1010E00003200BB0BDE83040FFF78EBA981E0020F9
:1010F000C01E0020324B70B593F8E8101A46012943
:1011000002D002293BD070BD93F8E90010B101284C
:1011100030D070BDDB6C0BB982F81411B2F81451E9
:10112000274C012D44D1274808F052FD112084F8A6
:101130001551FFF7F3F84008404284F816011B20D0
:10114000FFF7ECF805461C20FFF7E8F840EA052019
:1011500011F0ECFE18A3D3E9002311F04DFF12F0BB
:10116000E5F9C4F818010C20FFF7D8F8400984F815
:101170001C0170BD93F83731D3B1022106E093F81A
:10118000E920012A14D193F837318BB11220FFF7EF
:1011900071F80D4BD3F8003153B15C6944B11C2098
:1011A000FFF7BCF82346BDE8704000F03F00184749
:1011B00070BD00BFAFF300800000000080844E408F
:1011C000C01E0020AC1E0020B40A0020124B70B5D7
:1011D00093F8E950012D1ED11220FFF79FF810F06F
:1011E00001060E4C0AD005211220FFF743F8D4F86F
:1011F000003183B19B6973B1284609E004211220B4
:10120000FFF738F8D4F800312BB19B691BB1304699
:10121000BDE87040184770BDC01E0020B40A002011
:101220000A4601460020FFF703B837B53D4C054696
:1012300094F8E9308DF8071013B1012B30D06BE032
:10124000A4F820319DF8071094F80631A4F81E1177
:101250002BB901210DF10700FFF7E2FF02E0322078
:10126000FFF708F89DF80720531E3F2B02D884F89B
:10127000232106E029462C4809F06DFB202384F841
:101280002331284694F82311FFF7CAFFB4F8203120
:1012900094F82321D4F80C011344A4F820313CE045
:1012A00094F83931332043B1FFF738F800F0BE012C
:1012B0003320FEF7DFFF192109E0FFF72FF800F0D8
:1012C000BE0141F001013320FEF7D4FF1D213B2078
:1012D000FEF7D0FF9DF80710222084F84811FEF792
:1012E000C9FF00210E20FEF7C5FF00210D20FEF7EB
:1012F000C1FF0120FFF712F830F0F80304D1FFF727
:10130000B1F901200EF0DAFF28469DF80710FFF72B
:1013100087FFD4F83C0100E00020FFF7C5FA03B0D6
:1013200030BD00BFC01E0020B40A00200A4601469E
:101330000020FEF7CFBFF7B5944D00238DF807309E
:1013400095F8E8302C46012B03D0022B00F00681E3
:1013500019E195F8E9301BB1012B00F08B8012E107
:1013600095F808318A4DC3B33F20FEF7D7FF8DF8BB
:1013700007009DF807309B072FD40B213E20FEF776
:1013800079FF10213F20FEF775FF824808F020FC0E
:1013900094F80A612EB9804808F01AFC84F8E860D5
:1013A0000BE00D20FEF7BAFF40F04001C9B20D205E
:1013B000FEF760FF784808F096FBD5F8003113B1CE
:1013C0001B6903B19847002384F8143184F8153160
:1013D000A4F82031A4F81E31D5E0B4F81E116B4EEC
:1013E000A9B9B6F8203193B996F806312BB9012185
:1013F00006F58F70FFF79AFF04E03220FEF78EFFAC
:10140000A6F81E01B4F8200194F81E1101E0B4F80A
:101410002001091AC9B22844FFF788FFB4F81E3129
:101420005C48A4F8203108F0D3FB94F80A3133B9B2
:10143000564A594882F8E83008F0CAFB0BE00D2004
:10144000FEF76CFF40F04001C9B20D20FEF712FF1D
:10145000514808F048FBD5F80031002BB3D09D6807
:10146000002DB0D0002394F91621B4F81E1148487D
:10147000A847A8E740211220FEF7FCFE1220FEF745
:101480004DFF8DF807009DF80730414E13F0200FF7
:1014900011D020211220FEF7EDFE95F83A310BB95C
:1014A00085F8E8303B4808F093FBD6F80031002B74
:1014B00069D01B6965E01920FEF730FF40B20028B3
:1014C00085F84401BFBF40428010404245B2A8BFEA
:1014D00085101A20FEF722FF002D2C4A2F4940F3D9
:1014E0000B1307DAD4F8EC7028448F4206D8A438DE
:1014F000184409E0D4F8EC508D4202D9A0F19D05C2
:1015000001E0A0F1A405E818A2F846011320FEF7B7
:1015100005FF84F848011020FEF700FF01460D206A
:10152000FEF7A8FE94F848111948FFF7FFFE94F85B
:101530003A3113B9154A82F8E830164808F048FBEA
:10154000D6F80031FBB19D68EDB194F94431B4F99E
:10155000462194F848110E48A84714E0104808F0B6
:1015600037FB95F8E930012B03D108211220FEF753
:1015700081FE002384F8E830054BD3F8003113B125
:101580001B6803B1984703B0F0BD00BFC01E002028
:10159000B40A00200C200020AC1E002040DD4A1FB1
:1015A000981E002070B5354C94F8E81025460129A6
:1015B00002D0022942D070BD94F8E93013B1012B5A
:1015C00029D070BDB4F81E317BB9B4F8203163B9AD
:1015D00094F8063123B904F58F70FFF7A7FE04E0F5
:1015E0003220FEF79BFEA4F81E01B5F81E31B5F8B7
:1015F000202195F822119B1A8B42204C204805DDB2
:101600001044FFF793FE94F8222129E0D9B2104448
:10161000FFF78CFE2CE01B4808F0DAFA802112203C
:10162000FEF728FE002384F8E830154BD3F800318C
:1016300013B3DB6803B3BDE87040184794F8E93092
:10164000D3B9B4F81E31B4F8202194F823119B1AB1
:101650008B420B4808DD1044FFF7E2FD94F823218C
:10166000B4F82031134405E0D9B21044FFF7D8FD97
:10167000B4F81E31A4F8203170BD00BFC01E002098
:10168000B40A00200C20002038B505460C46FFF7B0
:1016900079F915B1012D07D038BD074B93F8063104
:1016A00043B92146322001E021462320BDE83840DD
:1016B000FEF7E0BD38BD00BFC01E002010B50446D7
:1016C0000120FFF75FF9064B83F840410CB134214C
:1016D00000E012213920BDE81040FEF7CBBD00BF6D
:1016E000C01E002070B52F4C94F8E8302546012B21
:1016F00002D0022B2ED070BD94F8E93023BB0B2111
:101700003E2084F8143184F81531A4F82031A4F86F
:101710001E31FEF7AFFD10213F20FEF7ABFD94F820
:101720000A3163B10D20FEF7F9FD40F04001C9B266
:101730000D20FEF79FFD1C4808F0D5F904E01A487B
:1017400084F8E83008F044FA184BD3F8003143B37A
:10175000DB6822E0FEF74CFDFEF7EBFD0020FEF714
:1017600053FF134E0024305DFFF70CF933199978BD
:1017700058780334FEF77EFD302CF4D10020FFF7BB
:1017800001F995F84001FFF799FF002385F8E8304B
:10179000064BD3F8003123B15B6813B1BDE870404C
:1017A000184770BDC01E0020AC1E0020B40A0020E7
:1017B000D8510108704700BF02F0CABF0170012074
:1017C0007047034610B5013911F8012F1C1A12B1E8
:1017D00003F8012BF8E7204610BD092B70B502F184
:1017E000FF3205460E461C4601D8014606E00A2394
:1017F000B4FBF3F3FFF7F1FF291807E0002AA1EB90
:10180000050003DD01F8016B013AF7E70A22B4FB9A
:10181000F2F302FB134330330B70013070BDF8B5A7
:1018200083EAE374A4EBE374092C164605460F46DD
:1018300002F1FF320AD9002B4FF00A03B4FBF3F395
:10184000B8BF5B42FFF7EBFF2A1813E0002BB8BFCD
:10185000B21E111A2944002902DD00F8017BF8E7C5
:10186000002B22EAE27005EB0002BFBF2D232B54B0
:10187000013201300A21B4FBF1F301FB1343303391
:1018800013700130F8BDF7B5089C05465FEA141ED9
:101890000F461E4602F1FF3201D1014605E0CDF8A8
:1018A00000E0FFF7F0FF291807E0002AA1EB050090
:1018B00003DD01F8017B013AF7E704F00F03092B80
:1018C00001D8303303E00EB1373300E05733013035
:1018D0000B7003B0F0BD2DE9F3410E46044608B18C
:1018E000002101700025117831B9AE424FF000039C
:1018F00065D92370284668E0B542F6D2252902D082
:101900000132217004E05178252904D1217002327E
:1019100001350134E7E7302916BF501C901C202107
:10192000002207788046A7F1300EBEF1090F00F1C2
:10193000010007D802EB820207EB4202303A02F0C4
:10194000FF02EEE7501986423CBF721BD2B2692FEC
:1019500017D00AD8632F29D0642F12D0582F32D134
:101960001F1D1B68009301231CE0752F0FD0782FDB
:1019700014D0732F27D1196820461F1DFFF721FFB0
:101980000AE01F1D20461B68FFF749FF04E01F1DEA
:1019900020461B68FFF721FF3B460BE01F1D1B681D
:1019A000009300232046FFF76EFFF5E71A68012039
:1019B0002270043308F101020444054493E704F85B
:1019C000013C681E01E04FF0FF3002B0BDE8F0813D
:1019D0000CB407B504AB53F8042B0193FFF77BFF5E
:1019E00003B05DF804EB02B0704713460A46642169
:1019F000FFF771BF0EB403B503AA52F8041B01929E
:101A0000FFF7F3FF02B05DF804EB03B07047094B3A
:101A100010B51B6804469A688A4202D0DB68994276
:101A200004D1E0B2FFF7C8FE204610BD4FF0FF30F2
:101A300010BD00BF1805002070B505460E460446CF
:101A4000601B14F8013B2BB118463146FFF7DFFF4E
:101A5000431CF5D170BDF0B5A3B006468E466C466A
:101A60006F46104B03F1200C25461868596808335F
:101A700003C563452C46F7D118687146286009A84C
:101A8000FFF7B3FF632806DD074B38461B68D968AC
:101A9000FFF7D2FFFEE7314609A8FFF7CDFF23B0DD
:101AA000F0BD00BF9858010818050020034B0A46F6
:101AB0001B6801469868FFF7CEBF00BF18050020DD
:101AC0000FB407B504A951F8040B0191FFF7EEFF1D
:101AD00003B05DF804EB04B070470EB403B503AA7D
:101AE00052F8041B0192FFF7B6FF02B05DF804EB59
:101AF00003B07047024B1B689968FFF79DBF00BF9A
:101B00001805002037B51A4C0546A36813F0F00FEE
:101B10001AD1636ADB0002D50FF05CFD0EE0636A48
:101B200043F080536362636A03F080530193019B27
:101B30000FF050FD636A23F080536362B0F5C05F1D
:101B400002D1B5F5404F01D0002305E0094A1368E2
:101B500043F004031360012306490A6822F00102DE
:101B60001A430A60086800F00100584003B030BD15
:101B700000380240003C0240174B10B51A680024A0
:101B800042F480721A609A6822F003029A6019681F
:101B9000124A0A401A609C604FF07F4292FAA2F209
:101BA0005A6822F07F4222F4604242F420425A6096
:101BB00058684FF4F85292FAA2F2B2FA82F2102167
:101BC00020F4F85001FA02F202435A60DC60044A41
:101BD000044B1A6010BD00BF00380240FEFFFAEE51
:101BE0000024F4003800002003682DE9F743DD07E6
:101BF000044603D42368980774D4FBE0B84B9A6872
:101C000002F00C02082A07D09A6802F00C020C2A93
:101C100017D19B68D90314D54FF4003393FAA3F27C
:101C2000AF4A126893FAA3F3B3FA83F303F01F03E6
:101C300022FA03F3DA07DDD56368002BDAD101203D
:101C40000CE36368A64D012B14D06BB92B684FF4DD
:101C5000003623F480332B602B6823F480232B6021
:101C60000DF03AFE07462FE0052B2B6806D143F412
:101C700080232B602B6843F4803305E023F480330A
:101C80002B602B6823F480232B600DF025FE074684
:101C9000934E4FF4003595FAA5F3326895FAA5F303
:101CA000B3FA83F303F01F0322FA03F3DB07A1D493
:101CB0000DF012FEC01B6428EDD90320CEE20DF01A
:101CC0000BFEC01B6428F8D896FAA6F32A6896FA89
:101CD000A6F3B3FA83F303F01F0322FA03F3D80742
:101CE000EDD487E77E4B9A6802F00C02042A07D0F5
:101CF0009A6802F00C020C2A25D19B68D90322D4E1
:101D0000022393FAA3F2764A116893FAA3F3B3FA83
:101D100083F303F01F0321FA03F313F0010F1346BB
:101D200002D0E268012A8AD15A684FF4F85191FA38
:101D3000A1F1B1FA81F1206922F4F85200FA01F11F
:101D40000A435A6056E0E26801238AB393FAA3F289
:101D5000B2FA82F2920002F1844202F58E0213601E
:101D60000DF0BAFD07465E4E022595FAA5F35C48D4
:101D7000326895FAA5F3B3FA83F303F01F0322FA4E
:101D800003F3DA0705D40DF0A7FDC01B0228ECD938
:101D900093E743684FF4F85292FAA2F2B2FA82F251
:101DA000216923F4F85301FA02F21343436021E05E
:101DB00093FAA3F3B3FA83F39B0003F1844303F58F
:101DC0008E031A600DF088FD0746454E022595FAF0
:101DD000A5F3326895FAA5F3B3FA83F303F01F0372
:101DE00022FA03F3DB0705D50DF076FDC01B0228B0
:101DF000EDD962E72368D80640F1D880384DAB684A
:101E000013F00C0F72D14FF4007393FAA3F22A6807
:101E100093FAA3F3B3FA83F303F01F0322FA03F355
:101E2000D90703D5A369002B3FF409AF2C4D206AD5
:101E30006B6803F46043984219D9FFF763FE0028EA
:101E40007FF4FDAE6B6823F46042236A13436B603A
:101E50006B684FF07F4292FAA2F2B2FA82F2E16925
:101E600023F07F4301FA02F213436B6017E06B68C3
:101E70004FF07F4223F4604303436B606B6892FA38
:101E8000A2F2B2FA82F2E16923F07F4301FA02F290
:101E900013436B60FFF736FE00287FF4D0AE4FF49B
:101EA000604393FAA3F3B3FA83F50D4BF0229968DC
:101EB00092FAA2F2B2FA82F0236A4FF40042EB40A7
:101EC000013302FA03F301F0F0020649C2408A5CD2
:101ED0000020D340044A13600DF0D8FC66E000BF38
:101EE00000380240DD55010838000020A2694FF497
:101EF0008073002A38D093FAA3F3B3FA83F39B00DC
:101F000003F1844303F58E0301221A600DF0E4FC13
:101F100007464FF4007696FAA6F3BB492A6896FA6C
:101F2000A6F3B3FA83F303F01F0322FA03F3DA07ED
:101F300005D40DF0D1FCC01B0228ECD9BDE64B68DE
:101F400023F46042236A13434B604B684FF07F4297
:101F500092FAA2F2B2FA82F2E06923F07F4300FA29
:101F600002F213434B6021E093FAA3F3B3FA83F335
:101F70009B0003F1844303F58E031A600DF0ACFC63
:101F800007464FF4007696FAA6F32A6896FAA6F367
:101F9000B3FA83F303F01F0322FA03F3DB0705D53B
:101FA0000DF09AFCC01B0228EDD986E623681807BD
:101FB00003D42368590740D4C2E0626901239349DE
:101FC000EAB193FAA3F2B2FA82F241F822300DF0AC
:101FD00083FC07468C4E022595FAA5F3726B95FAA1
:101FE000A5F3B3FA83F303F01F0322FA03F3DA072E
:101FF000DFD40DF071FCC01B0228EDD95DE693FA29
:10200000A3F3B3FA83F341F823200DF065FC0746F0
:102010007D4E022595FAA5F3726B95FAA5F3B3FAF6
:1020200083F303F01F0322FA03F3DB07C1D50DF09E
:1020300053FCC01B0228EDD93FE6734B5A6AD0000F
:102040000AD45A6A012642F080525A625B6A03F04F
:1020500080530193019B00E000266D4D2B68D9054C
:1020600004D5A368684D012B10D126E02B6843F4FA
:1020700080732B600DF030FC07462B68DA05F0D436
:102080000DF02AFCC01B6428F7D916E67BB96B6BF0
:102090004FF4007723F480736B636B6B41F28839E4
:1020A00023F480636B630DF017FC804635E0052B4D
:1020B0006B6B06D143F480636B636B6B43F480738B
:1020C00005E023F480736B636B6B23F480636B63B5
:1020D0000DF002FC41F288378146DFF82C814FF485
:1020E000007595FAA5F3D8F8342095FAA5F3B3FA5C
:1020F00083F303F01F0322FA03F3DB071AD40DF076
:10210000EBFBC9EB0000B842EBD9D6E50DF0E4FBE0
:10211000C8EB000048453FF6D0AD97FAA7F36A6BCD
:1021200097FAA7F3B3FA83F303F01F0322FA03F33A
:10213000D807EBD426B1344A536A23F08053536254
:10214000626A0AB9002089E02F4DAB6803F00C03E6
:102150000C2B3FF474AD022A4FF080735AD193FADE
:10216000A3F3B3FA83F39B0003F1844303F58E03D7
:1021700000221A600DF0B0FB80464FF0007797FA0E
:10218000A7F3214E2A6897FAA7F3B3FA83F303F073
:102190001F0322FA03F3D90706D50DF09DFBC8EB08
:1021A00000000228EBD988E5E26AA16AB36811430E
:1021B000226B23F47D030A431343B3604FF0807313
:1021C00093FAA3F3B3FA83F39B0003F1844303F57B
:1021D0008E0301221A600DF07FFB05464FF000745C
:1021E00094FAA4F3326894FAA4F3B3FA83F303F0F5
:1021F0001F0322FA03F3DA07A4D40DF06DFB401B92
:102200000228EDD959E500BF003802408006474258
:102210000070004093FAA3F3B3FA83F39B0003F139
:10222000844303F58E0300221A600DF055FB064629
:102230004FF0007494FAA4F32A6894FAA4F3B3FA62
:1022400083F303F01F0322FA03F3DB077FF57AAF72
:102250000DF042FB801B0228ECD92EE503B0BDE84F
:10226000F08370B586B00D4616460021142201A8F1
:1022700011F014FE0223029304930C4C4FF480736C
:102280000193E36901A943F00103E361E3690848AD
:1022900003F001030093009B07F088FAA36823F082
:1022A000EE431E433543A56006B070BD00380240C2
:1022B000000002404FF0805393FAA3F3B3FA83F384
:1022C0009B0003F1844303F58E0301221A607047DB
:1022D0004FF0805393FAA3F3B3FA83F39B0003F117
:1022E000844303F58E0300221A6070471E498B68F1
:1022F00003F00C02082A14D00C2A14D0042A31D07E
:102300004B684FF4604090FAA0F0B0FA80F003F40C
:10231000604323FA00F001304FF4004303FA00F069
:102320007047124870474FF4701292FAA2F2B2FA54
:1023300082F203F4701020FA02F20D48805C4FF430
:10234000400292FAA2F2B2FA82F203F44003D340BE
:102350008A680133D2034CBF044A064A5043B0FB9B
:10236000F3F070470348704700380240001BB70085
:10237000D45501080024F4005F4B2DE9F0411A68A0
:10238000064602F001028A420D460AD331688B07E5
:102390001AD55A48836823F0F002B3681343836068
:1023A00012E0012902BF1A6842F004021A601A689A
:1023B00022F001020A431A601B6803F001039942EC
:1023C000E4D00120BDE8F081CF0706D44A4B1A685B
:1023D00002F0010295425DD363E072684749022A28
:1023E00002D14FF4003309E0032A02D14FF0007309
:1023F00004E0012A0CBF02234FF4007393FAA3F008
:10240000096893FAA3F3B3FA83F303F01F0321FAE5
:1024100003F3DC07D5D5394C41F28838A36823F0A3
:1024200003031A43A2600DF057FA73680746022BA4
:102430000CD1A36803F00C03082BC7D00DF04CFAA5
:10244000C01B4045F5D90320BDE8F081032B0AD11C
:10245000A36803F00C030C2BB8D00DF03DFAC01BA1
:102460004045F5D9EFE7012B0FD1A36803F00C032A
:10247000042BABD00DF030FAC01B4045F5D9E2E794
:102480000DF02AFAC01B4045DDD8A36813F00C0FED
:10249000F6D19BE71A6822F001021A601B68DA077E
:1024A0008FD43168480706D51448836823F4E06266
:1024B000F368134383600B0707D5104A31699368AB
:1024C00023F4605343EAC1039360FFF70FFF0B4B04
:1024D000F0229B6892FAA2F2B2FA82F203F0F003C1
:1024E000D340074AD35CD840064B186000200DF05B
:1024F000CDF90020BDE8F081003C024000380240E8
:10250000DD55010838000020014B1868704700BFF6
:1025100038000020084B4FF4E0629B6892FAA2F268
:10252000B2FA82F203F4E063D340044AD35C044A73
:102530001068D840704700BF00380240ED550108D0
:1025400038000020084B4FF460529B6892FAA2F2C8
:10255000B2FA82F203F46053D340044AD35C044AD3
:102560001068D840704700BF00380240ED550108A0
:10257000380000201F2303602C4B1A68510301D53B
:10258000052204E01A6812F4803218BF012242606A
:102590001B684FF4F85113F0010318BF0123C36007
:1025A000224B5A6891FAA1F1B1FA81F102F4F85282
:1025B000CA4002611A684FF07F4112F4807218BF5E
:1025C000012282615A6891FAA1F1B1FA81F102F017
:1025D0007F42CA40C2615A6802F4604202625B6B89
:1025E0005A0501D5052305E0104B5B6B13F480738E
:1025F00018BF012383600D4B5A6B12F0010218BF04
:10260000012242611B68DB014CBF022301234362AC
:10261000064B9A6802F4803282629A6802F4701261
:10262000C2629B6803F440030363704700380240B2
:102630000F2303600B4B9A6802F0030242609A6812
:1026400002F0F00282609A6802F4E062C2609B6865
:10265000DB0803F4E0630361034B1B6803F0010331
:102660000B60704700380240003C0240704708B5DC
:10267000044BDB681B0604D5FFF7F8FF024B8022F2
:102680001A7008BD003802400E380240704773B51A
:102690000446002800F0AD80C36C73B9036580F870
:1026A0004830554B1A6A42F001021A621B6A03F065
:1026B00001030193019BFFF7E9FFE36CDB0600F1E7
:1026C0009880E36C4D4923F4885323F0020343F0D0
:1026D0000203E3644B6823F44032636813434B60A6
:1026E0004FF4007292FAA2F20223B2FA82F1656A02
:1026F00093FAA3F3B3FA83F36269E06805FA03F38C
:102700001043226A1043E26B8A40616B0243102936
:1027100043EA020318BFA26B206918BF0A4321686D
:1027200018BF13430A6812F0400F2DD1A269A668A2
:102730001343E269B0F5807F42EA0602064604D000
:1027400001280CBF4FF4807600263243E66A012E42
:1027500015D165B94FF4604595FAA5F5B5FA85F63A
:10276000256B42F40062013DB5402A4307E0E56C69
:1027700045F02005E564256D45F0010525654E68A9
:102780001F4D35402A434A608D681E4AB0F5807F50
:1027900002EA050242EA03028A600A6B01D00128BC
:1027A0000CD14FF0F87090FAA0F0B0FA80F5A06A62
:1027B00022F0F8720138A840024301E022F0F872DA
:1027C0000A638968104A0A40934208D100202065B4
:1027D000E36C23F0030343F00103E3640AE0E36CDA
:1027E00023F0120343F01003E364236D43F001036D
:1027F0002365012002B070BD00380240002701406F
:10280000FF16FCFC8DF1FFC0FEFF80BF7047036820
:1028100070B59A68044656050D460BD59B68D805D9
:1028200008D5E36C012043F02003E364002384F81F
:10283000483070BD0DF050F8064623681A689207BC
:1028400011D4691CFAD045B9E36C032043F00403AA
:10285000E364002384F8483070BD0DF03DF8801B20
:102860008542EAD2F0E7A26912B96FF012021A604B
:10287000E26C42F40072E2649A6812F0405F01D0A8
:10288000002070BD626A002AFAD11A6B12F0F87F3C
:1028900002D09B685B05F3D4E36C23F48073E3649C
:1028A000E06C10F48050EBD1E36C43F00103E3647F
:1028B00070BDF8B504460E4615460DF00DF80746F6
:1028C00023681A6836EA020211D06A1CF9D045B9A9
:1028D000E36C032043F00403E364002384F84830EE
:1028E000F8BD0CF0F9FFC01B8542E9D2F0E7012EDC
:1028F000E26C05D142F48032E2646FF0010208E03C
:1029000042F48062E264226D42F0020222656FF0BE
:1029100020021A600020F8BD0368986D7047704768
:10292000436A10B5DA6C12F0500F24D1DA6C42F41D
:102930000072DA641A68916811F0405F17D1596A21
:10294000A9B9116B11F0F87F02D0916849050ED436
:10295000516821F020015160DA6C22F48072DA644F
:10296000DA6CD2045EBFDA6C42F00102DA64184617
:10297000FFF7D5FF10BD5B6CBDE810401B6B18471F
:10298000704708B5406AFFF7FBFF08BD7047704706
:10299000406A08B5C36C43F04003C364036D43F061
:1029A00004030365FFF7F3FF08BD38B50368044669
:1029B0005A6891062CD51A68920729D5C26CD5069B
:1029C0005EBFC26C42F40072C2649A6812F0405F4B
:1029D00017D1426AAAB91A6B12F0F87F02D09A682E
:1029E00050050ED45A6822F020025A60E36C23F49A
:1029F0008073E364E36CD9045EBFE36C43F00103CE
:102A0000E3642046FFF78BFF23686FF012021A6021
:102A100023685A68120633D51A68550730D5E26C18
:102A2000D0065EBFE26C42F40052E2649A6812F48F
:102A3000401F1ED15A6C12F4401F02D09A685105F3
:102A400017D45A68520514D49A6812F0405F10D116
:102A5000626A72B95A6822F080025A60E36C23F409
:102A60008053E364E36CDB055EBFE36C43F001037A
:102A7000E36420460DF0C8FF23686FF00C021A6073
:102A800023685A6855060DD51B68D8070AD5E36C2C
:102A9000204643F48033E364FFF778FF23686FF048
:102AA00001021A6023685A6851010ED51A6892060D
:102AB0000BD5226D6FF0200542F002022265204600
:102AC0001D60FFF764FF23681D6038BD73B50023E8
:102AD000019390F84830012B00F09C80012380F88E
:102AE00048304B680468062B4FEA83050A680BD808
:102AF0002B44266C053B1F259D4026EA050502FA5E
:102B000003F32B43236434E00C2B0BD82B44E66BEC
:102B1000233B1F259D4026EA050502FA03F32B43BC
:102B2000E36326E0122B0BD82B44A66B413B1F25F9
:102B30009D4026EA050502FA03F32B43A36318E040
:102B4000182B0BD82B44666B5F3B1F259D4026EA54
:102B5000050502FA03F32B4363630AE02B44266B5B
:102B60007D3B1F259D4026EA050502FA03F32B4312
:102B70002363092A0CD8666902EB4203896807259A
:102B80009D4026EA050501FA03F32B43636120E02B
:102B9000132A0DD802EB420326691E3B89680725DC
:102BA0009D4026EA050501FA03F32B43236110E05B
:102BB0001A2A0DD802EB4203E6683C3B89680725D8
:102BC0009D4026EA050501FA03F32B43E36000E08C
:102BD00000BFA2F11003012B04D9002380F8483074
:102BE000184618E00D4B59680902F6D45968102AA6
:102BF00041F400015960F0D1094B0A4A1B68B3FB4C
:102C0000F2F20A2353430193019B002BE5D0019B71
:102C1000013BF8E7022002B070BD00BF0027014071
:102C20003800002040420F0090F8483030B5012BAA
:102C30001FD001230C6880F848308B68012B036893
:102C40005D680CBF45F0400525F040055D605A68A1
:102C5000094D15405D605A6814434A6822435A6022
:102C6000CA689A620A69DA62002380F84830184616
:102C700030BD022030BD00BFE0FD3FFFC06C70479B
:102C8000006D704773B500230193036804461A680A
:102C9000520601D5002028E09A6842F001029A60AD
:102CA000134B144A1B68B3FBF2F303EB430301938A
:102CB000019B13B1019B013BF9E70CF00DFE0646A9
:102CC00023681B6813F04005E4D10CF005FE801B5F
:102CD0000228F5D9E36C84F8485043F01003E3640C
:102CE000236D012043F00103236502B070BD00BFD6
:102CF0003800002040420F0090F8483010B5012BFA
:102D000004462ED0012380F84830FFF7BBFF58BBA4
:102D1000E36C226823F4E06323F0010343F480733F
:102D2000E36453686FF022015B0541BFE36C23F459
:102D3000405343F48053E364E36C13F480531CBFAB
:102D4000236D23F006032365002384F848301160C7
:102D5000906810F0405006D1936843F08043936030
:102D600010BD022010BD184610BD90F8483010B5B7
:102D7000012B044635D0012380F84830FFF782FF4D
:102D8000002831D1E36C226823F4E06323F00103CF
:102D900043F48073E36453686FF022015B0541BF25
:102DA000E36C23F4405343F48053E364E36C13F483
:102DB00080531CBF236D23F006032365002384F892
:102DC00048301160516841F0806141F0200151604C
:102DD000906810F0405006D1936843F080439360B0
:102DE00010BD022010BD184610BD2DE9B84190F865
:102DF00048300446012B0F4690464CD0012380F802
:102E00004830FFF73FFF002849D1E06C216820F4EB
:102E1000E06020F0010040F48070E0644B68002521
:102E20005B0548BFE06C84F8485042BF20F4405036
:102E300040F48050E064E36C606C13F4805318BF7E
:102E4000236D3A4618BF23F006032365154B58310E
:102E50008362154BC362154B03636FF0220341F885
:102E6000583C51F8543C43F0806341F8543C51F8CD
:102E7000503C43F4807341F8503C43460DF057FFFB
:102E80002368986810F0405008D19A6842F0804258
:102E90009A60BDE8B8810220BDE8B8812846BDE847
:102EA000B88100BF21290008832900089129000862
:102EB00038B5036804461A68520601D4002038BDAC
:102EC0009A6822F001029A600CF006FD054623681C
:102ED0001B685B06F2D50CF0FFFC401B0228F6D9FC
:102EE000E36C012043F01003E364236D43F001031E
:102EF000236538BD38B5054600286CD0C36C43F057
:102F00000203C364FFF7D4FF044600285ED12B6898
:102F10006FF01F021A605968304A0A405A60996877
:102F20002F4A0A409A6000BFDA682846520D5205BF
:102F3000DA601A6902F040421A615A6902F04042AE
:102F40005A619A6922F47F6222F00F029A61DA696B
:102F500022F47F6222F00F02DA611A6A22F47F62A1
:102F600022F00F021A625A6A22F47F6222F00F02E4
:102F70005A629A6A22F47F6222F00F029A62DA6A37
:102F800022F47F6222F00F02DA62196B154A0A40BE
:102F90001A635A6B02F040425A639A6B02F0404245
:102FA0009A63DA6B02F04042DA631A6C02F0404234
:102FB0001A645A6C920D92055A640B4A536823F4B2
:102FC00000035360FFF722FC2C65EC64002385F8B6
:102FD0004830204638BD012038BD00BF00003CF815
:102FE0008CF0808000800FFE0027014090F8483070
:102FF00010B5012B044611D0012380F84830FFF7AB
:1030000057FF38B9E36C23F4885323F0010343F0EE
:103010000103E364002384F8483010BD022010BD92
:1030200090F8483010B5012B044616D0012380F8E3
:103030004830FFF73DFF60B92268536823F0200352
:103040005360E36C23F4885323F0010343F001033E
:10305000E364002384F8483010BD022010BD90F8CE
:10306000483010B5012B044622D0012380F84830A7
:10307000FFF71EFFC0B92268606C936823F4807369
:1030800093600DF094FEE36C30B923F4885323F081
:10309000010343F0010301E043F040032268E364CD
:1030A000536823F080635360002384F8483010BDD8
:1030B000022010BD012813B522D10DF107011148DE
:1030C00001F096FAE0B99DF807400F4A242C02D08F
:1030D00013787E2B01D90023137011780B484B1CF9
:1030E000DBB20A2C137044540AD1074A0231C9B228
:1030F00000241170C45401F085FD204607F070F9DA
:1031000002B010BDE0280020B80B00203C200020B9
:103110007047074B1A7822B901211970054B02211B
:1031200003E000221A70034B012103480EF0F1BAAC
:103130002C2000201131000820200020012101480E
:103140000EF0F4BA302000207FB51A4B00241C701A
:10315000194B0125194E1D702A46234601940094EF
:103160000F2117480EF0C8FA234622462146304662
:10317000019400940EF0C0FA224630460221114B11
:103180000EF0C7FA104E114B7363FFF7D7FF2946B5
:1031900030461B231A2201F0D3F8029401940094C4
:1031A00023464FF416522946304601F01BF904B06D
:1031B00070BD00BFB80B00202C2000202020002074
:1031C0003020002011310008E0280020B530000830
:1031D000002101480EF0AABA30200020704700BF3D
:1031E000F8B50D461746044600285ED000295CD08D
:1031F000002A5AD04B78DA1E012A01D90A2308E0A6
:103200008878217C421D914202D1227A082A04D07A
:10321000022384F82B300520F8BD2A780AB912233E
:10322000F7E73978914201D00D23F2E77A789A4294
:1032300001D00C23EDE7431EDBB2F92BE8D8BE88A2
:10324000330A43EA0626B6B2B0EB460FE0D10221BC
:10325000400811F0E9F82062606240B3002303F1F6
:10326000010EDBB2B3420AD205EB4302B2F80310FF
:103270000A0A42EA012220F813207346EFE72B786E
:10328000002023756B7823776B78032B0CBF012309
:103290000223E3767A882683130A43EA0223E38231
:1032A000AB7884F82B00A376F8BD0420F8BD02208B
:1032B000F8BD38B50D460446002847D0002945D052
:1032C000002A43D0037C082B02D1037A082B01D0BB
:1032D000022302E00B7823B9122384F82B30052057
:1032E00038BD1178994201D00D23F6E769785378FB
:1032F000994201D00C23F0E769885388994201D0A4
:103300000E23EAE7A9889388994201D01023E4E7C5
:103310000221012011F088F820626062C0B1AA8801
:10332000130A43EA02230380062323772B78012222
:103330002375E276698800200B0A43EA0123E382C1
:103340000223A376228384F82B0038BD042038BDE5
:10335000022038BD30B5002846D0002944D0002ACC
:1033600042D0047A062C06D9937909339C4202D1C3
:10337000037C082B01D0022321E00C780CB9122326
:103380001DE01378A34201D00D2318E04D78537847
:103390009D4201D00C2312E04D8853889D4201D0FC
:1033A0000E230CE08B8892889A4201D00F2306E00E
:1033B000130A43EA02239BB27B2B04D9032380F830
:1033C0002B30052030BD102202770122C276047511
:1033D000498803830A0A002342EA01228376C282D3
:1033E00080F82B30184630BD042030BD30B50028A1
:1033F0003ED000293CD0002A3AD0037C0A2B02D1CF
:10340000037A0A2B01D002231DE00B780BB912239B
:1034100019E014789C4201D00D2314E04D785478C3
:10342000A54201D00C230EE04D885488A54201D05E
:103430000E2308E08D889488A54203D1CC88D288D9
:10344000944204D0112380F82B30052030BD037541
:10345000012216230377C276498802830B0A43EAC6
:103460000123C3820023837680F82B30184630BDB9
:10347000042030BD7047FEE7FEE7FEE7704700001E
:1034800070B5054686B014461E46002B5ED04388B4
:103490000129019301D12E4B03E002290CBF2D4BD2
:1034A0002D4B0293AB7A01A903936868022304931E
:1034B00006F07CF9032C98BF284B6A8894BF195DED
:1034C0000021B2F5807F2FD010D8102A2AD007D83B
:1034D000042A23D0082A23D0022A29D1072428E04D
:1034E000402A21D0802A1FD0202A0BE0B2F5805F2D
:1034F0001CD009D8B2F5806F18D0B2F5006F15D086
:10350000B2F5007F14D10FE0B2F5804F0ED0B2F5C6
:10351000004F0BD0B2F5005F0AD107E0082408E0A5
:10352000092406E00A2404E0172402E0282400E02D
:1035300006242A780A4B02F00F0243F82260204644
:10354000002207F0C5F8204607F0F6F806B070BD77
:103550000000111000002110000031100852010875
:10356000BC0B00207FB5438801A901934068032369
:10357000029306F01BF907B05DF804FB90F90030E8
:10358000013304D0CAB24188406806F059BA704786
:10359000F0B504468BB00170481C9DF840E0119FC7
:1035A0006DD001F00F000126864011F0F005668015
:1035B00034480BD134496160C16941F00101C161F6
:1035C000C16901F001010091009934E0102D0BD187
:1035D0002E496160C16941F00201C161C16901F018
:1035E00002010191019926E0202D0BD1284961604B
:1035F000C16941F00401C161C16901F00401029196
:10360000029918E0302D0BD122496160C16941F067
:103610000801C161C06900F00800039003990AE045
:10362000C5691D4945F020056160C561C06900F0AC
:103630002000049004990221059684F80AE0CDF850
:103640001CE008910AB1032A01D1069213E0022A74
:1036500006D1012B06BF12230693069209970AE0B2
:10366000012B0CBF11230123012A069303D13946F4
:103670002046FFF783FF05A9606806F097F80BB0B6
:10368000F0BD00BF003802400000024000040240CC
:1036900000080240000C02400014024090F9003083
:1036A000013303D04188406806F0CEB9704708B5B1
:1036B00090F90030013304D04188406806F0BAF92F
:1036C00008BD002008BD08B506F06AFEBDE8084048
:1036D000012006F0D3B908B506F062FEBDE8084047
:1036E000022006F0CBB908B506F05AFEBDE8084046
:1036F000042006F0C3B908B506F052FEBDE8084044
:10370000082006F0BBB908B506F04AFEBDE808403F
:10371000102006F0B3B908B506F042FE202006F0EE
:10372000ADF9402006F0AAF9802006F0A7F94FF481
:10373000807006F0A3F9BDE808404FF4007006F071
:103740009DB908B506F02CFE4FF4806006F096F99E
:103750004FF4006006F092F94FF4805006F08EF9B5
:103760004FF4005006F08AF94FF4804006F086F9D5
:10377000BDE808404FF4004006F080B938B100239E
:103780000128DAB203F1010302D04008F8E702464B
:10379000024B53F8223003B118477047BC0B00208E
:1037A0002DE9F04781460668D9F80810336923F4FB
:1037B0004052C368C06913433361D9F81030F268CE
:1037C0001943D9F81430B0F5004F43EA010343EA36
:1037D000000122F4164323F00C0343EA0103F360D3
:1037E000736923F44072D9F8183043EA0203736115
:1037F0007D4B7DD19E424FF0190432D1FEF7A2FEDF
:103800006043D9F804704FF064087F00B0FBF7F70D
:10381000FEF798FE6043D9F80450B7FBF8F76D0047
:10382000B0FBF5F5FEF78EFE6043D9F804303F019A
:103830005B00B0FBF3F0B0FBF8F008FB1055FEF7AF
:1038400081FEED003235B5FBF8F56043D9F8041080
:103850006D00490005F4F875B0FBF1FAFEF772FE51
:1038600031E0FEF757FE6043D9F804704FF064086A
:103870007F00B0FBF7F7FEF74DFE6043D9F8045028
:10388000B7FBF8F76D00B0FBF5F5FEF743FE6043BC
:10389000D9F804303F015B00B0FBF3F0B0FBF8F067
:1038A00008FB1055FEF736FEED003235B5FBF8F596
:1038B0006043D9F804106D00490005F4F875B0FBB9
:1038C000F1FAFEF727FE4443D9F804004000B4FBA8
:1038D000F0F0B0FBF8F008FB10A2D2003232B2FBDD
:1038E000F8F303F007033B441D44B560BDE8F087DF
:1038F0009E424FF0190431D1FEF724FE6043D9F8FF
:1039000004704FF06408BF00B0FBF7F7FEF71AFE33
:103910006043D9F80450B7FBF8F7AD00B0FBF5F5FC
:10392000FEF710FE6043D9F804303F019B00B0FB66
:10393000F3F0B0FBF8F008FB1055FEF703FE2D0185
:103940003235B5FBF8F56043D9F8041005F0F00501
:103950008900B0FBF1FAFEF7F5FD30E0FEF7DAFD85
:103960006043D9F804704FF06408BF00B0FBF7F76C
:10397000FEF7D0FD6043D9F80450B7FBF8F7AD006F
:10398000B0FBF5F5FEF7C6FD6043D9F804303F0102
:103990009B00B0FBF3F0B0FBF8F008FB1055FEF70E
:1039A000B9FD2D013235B5FBF8F56043D9F80410A7
:1039B00005F0F0058900B0FBF1FAFEF7ABFD4443DA
:1039C000D9F804008000B4FBF0F0B0FBF8F008FB7D
:1039D00010A212013232B2FBF8F303F00F032B44B2
:1039E0001F44B760BDE8F08700380140F8B50446D1
:1039F0000E4615460BF070FF07462268136836EA3C
:103A0000030321D06B1CF9D0C5B923680320DA6801
:103A100022F08002DA60DA6822F02002DA60DA68E6
:103A200022F48072DA605A6922F001025A6101239D
:103A300084F83930002384F83830F8BD0BF04CFF9F
:103A4000C01B8542D9D2E0E70020F8BD704710B511
:103A5000044630B390F8393003F0FF021BB980F808
:103A60003820FFF7F3FF2268022384F83930D36847
:103A7000204623F40053D360FFF792FE2368002012
:103A80001A6922F490421A615A6922F02A025A6194
:103A9000DA6842F40052DA600123E06384F83930D6
:103AA00010BD012010BD10B5044650B390F8393058
:103AB00003F0FF021BB980F83820FFF7C7FF226828
:103AC000022384F83930D368204623F40053D360AE
:103AD000FFF766FE236800201A6922F490421A61FB
:103AE0005A6922F022025A615A6942F008025A6168
:103AF000DA6842F40052DA600123E06384F8393076
:103B000010BD012010BD38B50D46044678B390F8BD
:103B1000393003F0FF021BB980F83820FFF796FF19
:103B20002268022384F83930D368204623F40053F6
:103B3000D360FFF735FE236800201A6922F4006283
:103B40001A615A6922F02A025A611A6942F48042C3
:103B50001A611A6922F0200215431D61DA6842F4E5
:103B60000052DA600123E06384F8393038BD012067
:103B700038BD70B50E4615460446002830D090F882
:103B8000393003F0FF021BB980F83820FFF75EFFE1
:103B90002268022384F83930D368204623F4005386
:103BA000D360FFF7FDFD236800201A6922F49042DC
:103BB0001A615A6922F02A025A611A6922F00F0228
:103BC00016431E61DA6822F400621543DD60DA688C
:103BD00042F40052DA600123E06384F8393070BDAA
:103BE000012070BD704738B50546A0B1022380F8AA
:103BF000393003680024DA6822F40052DA60DC60AD
:103C00001C615C61FFF7EEFFEC6385F8384085F8D6
:103C10003940204638BD012038BD70B50D4690F8BA
:103C200039100446C9B201291E4601D022294ED1BD
:103C3000002D4AD0002A48D094F83830012B46D0C5
:103C4000012384F838300023E36394F83930A284E8
:103C5000222B0CBF3223122384F83930E284E28C09
:103C600002B3A368013AB3F5805FE2844FF08001AC
:103C7000324620460DD1FFF7B9FE08B1032070BDD2
:103C80002B882268C3F308035360236943B90235C4
:103C9000E5E7FFF7ABFE0028F0D123682A785A60E9
:103CA0000135DCE7324640212046FFF79FFE002821
:103CB000E4D194F83930322B0CBF2223012384F84D
:103CC0003930002384F8383070BD012070BD0220E7
:103CD00070BD70B51E4690F839300446DBB2012B3A
:103CE0000D4601D0122B50D1002D4CD0002A4AD0C5
:103CF00094F83830012B48D0012384F83830002361
:103D0000E36394F83930A285122B0CBF32232223AF
:103D100084F83930E285E38D4BB3013BE385A3683A
:103D20003246B3F5805F4FF02001204611D1FFF7F6
:103D30005DFE08B1032070BD236822695B6822B96B
:103D4000C3F3080325F8023BE5E7DBB225F8013BA6
:103D5000E1E7FFF74BFE0028ECD1236821696A1CDC
:103D60005B6809B103F07F032B701546D3E794F825
:103D700039300020322B0CBF1223012384F8393054
:103D800084F8380070BD012070BD022070BD90F82D
:103D90003930DBB2012B01D0222B20D1E9B1E2B1C5
:103DA00090F83830012B1AD0012380F838300023E6
:103DB000C3638284C28490F8392080F83830222A84
:103DC0000CBF3222122280F8392002680162D368C7
:103DD000002043F08003D360704701207047022029
:103DE000704790F83930DBB2012B01D0122B28D16B
:103DF00029B322B390F83830012B22D0012380F868
:103E000038300023C3638285C28590F8392080F85A
:103E10003830122A03680CBF3222222280F839205F
:103E2000DA68816242F48072DA605A69002042F0F6
:103E300001025A61DA6842F02002DA60704701201C
:103E4000704702207047134690F8392010B5D2B25F
:103E5000012A044601D0222A2ED159B353B394F833
:103E60003820012A28D0012284F838200022E26379
:103E700094F83920206B222A0CBF3222122284F8B7
:103E800039200E4AA384E384216282620C4AC26212
:103E90000C4A0263226804320CF049FF23686FF079
:103EA00040021A605A69002042F080025A6184F888
:103EB000380010BD012010BD022010BD3F40000899
:103EC0006D400008B940000838B5044690F8390044
:103ED0001346C0B2012801D012282BD141B33BB305
:103EE00094F83820012A25D0012284F838200022B5
:103EF000E26394F83920606B122A0CBF322222222E
:103F000084F839200C4AA162A38582620B4A256895
:103F1000C2620B4A02630A46291D0CF008FF2268A0
:103F20000020536943F04003536184F8380038BDE2
:103F3000012038BD022038BD79400008AD4000089E
:103F4000B940000890F83830012B26D090F839207D
:103F50000123122A80F8383004D10268536923F013
:103F6000800310E090F83920222A04D102685369B6
:103F700023F0400307E090F83920322A08D1026884
:103F8000536923F0C0035361002380F8383002E006
:103F9000002280F83820184670470220704790F8B9
:103FA000383082B0012B32D090F839200123122A08
:103FB00080F8383005D10268536943F080035361BB
:103FC00020E090F83920222A09D103681A6800926B
:103FD0005A680092009A5A6942F040020CE090F848
:103FE0003920322A0AD103681A6801925A6801926C
:103FF000019A5A6942F0C0025A6103E0002280F837
:10400000382002E0002380F83830184600E0022013
:1040100002B07047026810B553690446006B23F084
:10402000C003536108B10CF0C2FE606B08B10CF024
:10403000BEFE012384F83930002010BD704708B55A
:104040000368426A1B6813F020030AD1D384136803
:104050005A6922F080025A61DA6842F04002DA605E
:1040600008BD104600F0DBFA08BD704708B5406A8D
:10407000FFF7FBFF08BD7047026808B51268436A86
:1040800012F020020DD11968DA854A6922F0400247
:104090004A6193F83920322A0CBF1222012283F898
:1040A0003920184600F0DAFA08BD704708B5406AB2
:1040B000FFF7FBFF08BD7047406A08B50023C385C2
:1040C000C384012380F83930C36B43F01003C3630A
:1040D00000F0F6FA08BD026813B511680446C90776
:1040E000D36805D5DB0542BFC36B43F00103C3634F
:1040F00011685369880703F0010304D51BB1E16B14
:1041000041F00401E1631168490704D51BB1E16B7B
:1041100041F00201E1631168080704D51BB1E36BAC
:1041200043F00803E3631168D368890642D5980613
:1041300040D594F8393003F0EF03222B3AD1A3682D
:104140002169B3F5805FA36A0BD1526821B9C2F32C
:10415000080223F8022B02E0D2B223F8012BA3625B
:104160000AE019B9591CA162526804E05268591C4E
:10417000A16202F07F021A70E38D013B9BB2E385DE
:10418000C3B923682046DA6822F02002DA6094F886
:104190003920322A17BFDA68122322F48072DA60DB
:1041A0001FBF5A6922F001025A61012384F8393095
:1041B00000F054FA23681968DA68090628D5100651
:1041C00026D594F8392002F0DF02122A20D1A26805
:1041D000B2F5805F226A0AD11188C1F308015960E3
:1041E000216909B9023200E00132226203E0511C68
:1041F000216212785A60E28C013A92B2E2843AB9B2
:10420000DA6822F08002DA60DA6842F04002DA60AE
:104210001968DA68490610D552060ED5DA682046C4
:1042200022F04002DA6094F83930322B0CBF22239E
:10423000012384F8393000F0F2F9E36B5BB12368B5
:1042400020461A6801925B680193019B012384F860
:10425000393000F035FA02B010BD90F83830012B3B
:104260004FF002030CD0026880F83930D36843F075
:104270000103D360012380F83930002380F83830FF
:104280001846704790F83830012B4FF002030CD0DD
:10429000026880F83930D36843F00203D360012309
:1042A00080F83930002380F838301846704790F88D
:1042B0003830012B4FF002030CD0026880F83930FF
:1042C000D36823F00203D360012380F83930002340
:1042D00080F838301846704790F83830012B4FF08E
:1042E00002030ED0026880F83930D36823F00C0343
:1042F00043F00803D360012380F83930002380F8AD
:1043000038301846704790F83830012B4FF00203D0
:104310000ED0026880F83930D36823F00C0343F0E4
:104320000403D360012380F83930002380F838304B
:104330001846704790F839007047C06B704700BF4F
:104340002DE9FF410C46054611461E460470FCB996
:10435000234B01275A694FF0070842F480425A6103
:104360005A69043022F480425A611A6A42F4804247
:104370001A621B6A022203F480430293029B8DE8B7
:10438000800123460DF0B8F98DE8800123461EE038
:10439000012C22D1124B07279A69043042F4802263
:1043A0009A619A6922F480229A615A6A42F48022C0
:1043B0005A625B6A022203F480230393039B8DE815
:1043C000900000230DF098F98DE890000023022260
:1043D000314605F110000DF08FF904B0BDE8F08111
:1043E000003802402DE9F74F0478064689460192CD
:1043F0009B469DF830A09DF834809DF8385054B904
:104400004A494B4A283011604FF40072494904F080
:104410007DFC25270CE0012C40F084804649444A6D
:10442000464851644FF40072454904F06FFC272759
:104430003F4A442101FB0421019B4B60B9F1000F6D
:1044400001D1082008E0B9F1010F01D1042003E0F7
:10445000B9F1020F01D10C2048614421BBF1000FDA
:1044600004D101FB0421C1F808B007E0BBF1010F42
:1044700002BF01FB04214FF480538B60442303FBF4
:104480000423BAF1020F0CBF4FF400510021D96090
:10449000442303FB0423B8F1000F02D1C3F81080BA
:1044A00007E0B8F1010F0CBF4FF480614FF4C06119
:1044B000196144231DB903FB04239D6114E0012D00
:1044C00004D103FB04234FF480710CE0022D04D1CE
:1044D00003FB04234FF4007105E0032D04D103FB1B
:1044E00004234FF440719961442505FB0424002303
:1044F000E3612046FFF7ABFA024600B1FEE7082170
:10450000384606F0E5F8384606F016F920463378C6
:104510000749012205FB0311403103B0BDE8F04F0C
:10452000FFF75FBC03B0BDE8F08F00BF003801406B
:10453000BC2200204423002000480040082900201D
:10454000BC20002037B5037804466BB9184B5A6974
:1045500042F480425A615A6922F480425A611A6ACE
:1045600022F480421A620EE0012B0CD1104B9A69A2
:1045700042F480229A619A6922F480229A615A6AEE
:1045800022F480225A622046002510F9041F2B468F
:104590000195009503220DF0AFF820462B4610F947
:1045A000101F0322019500950DF0A6F803B030BD51
:1045B0000038024070B500F11C0528460E4604F094
:1045C000CFFB044678B90CF027FD2846314604F0AD
:1045D000A3FB0CF029FD054B20461A68D36843F075
:1045E0008003D36070BD012070BD00BFBC220020DD
:1045F00070B5054628350E460CF00EFD284604F031
:10460000A9FB044638B9284604F093FB30700CF03F
:104610000BFD204670BD0CF007FD012070BD13B5E9
:1046200004460C4804F096FB50B90A4804F081FB9C
:1046300002A901F8010D01222046FFF7A8FB02E0C4
:10464000252006F085F8044B5B6B0BB100209847E2
:1046500002B010BDA028002084280020F8B5154C19
:10466000A04206D004F14403984221D10125124E04
:1046700001E0124E002506F12807384604F070FBD1
:1046800038B9442303FB0543384693F8401004F03F
:1046900043FB736B0BB1012098474420684300F142
:1046A0004001214420440122BDE8F840FFF799BBB6
:1046B000F8BD00BFBC220020E02800208428002094
:1046C000094B984205D003F1440290420BD10120DE
:1046D00000E000204422504300F14001012219442F
:1046E0001844FFF77EBB7047BC2200200148FFF74B
:1046F000F2BC00BFBC2200200A4B5A6C1168D26881
:1047000049060CD552060AD593F87D20222A03D0FB
:1047100093F87D20322A02D1322283F87D2002488C
:10472000FFF7D9BCBC2200200023002007B50748B2
:104730000DF10701FFF75CFF10B99DF8070001E0DC
:104740004FF0FF3003B05DF804FB00BF8428002069
:1047500007B502A901F8010D4FF6FF7301220348C6
:10476000FFF75BFA03B05DF804FB00BFBC2200203A
:1047700007B502A901F8010D4FF6FF7301220348A6
:10478000FFF74BFA03B05DF804FB00BF00230020E5
:1047900038B5084B01245A6800212244092A1C70AC
:1047A00005465A60017004D92046596005F018FE8C
:1047B0002C7038BD000C0020024B00221A70FEF74E
:1047C000C3BC00BF000C0020FEF7B8BCFEF700BD64
:1047D000FEF704BD10B50CF01FFC044B00221C7842
:1047E0001A700CF021FC204610BD00BF000C002008
:1047F000074910B5D1E90201002200234FF001045E
:104800000EF062FE08B14FF0000404F0010010BD8C
:10481000000C0020F8B51C4C0022D4E904670023EA
:10482000304639460EF06EFE18B14FF04042174B3D
:1048300001E0174B0022304639460EF0DDFB002226
:10484000144B0EF003FD0EF071FE0022A061002358
:1048500004F12005D5E90045204629460A4E0EF010
:1048600051FE18B14FF04042084B01E0084B0022C6
:10487000204629460EF0C0FB0022074B0EF0E6FC56
:104880000EF054FEB062F8BD000C0020FFFF5F4147
:104890000000604100805640008066402DE9F84FDE
:1048A000954B03F10A0113F8012F02F00F028B421E
:1048B0001A70F8D1914C924D207E0EF027FB002209
:1048C000904B0EF099FB0646607E0F460EF01EFBE5
:1048D00000228D4B0EF090FB02460B4630463946C7
:1048E0000EF0D8F90646A07E0F460EF00FFB002210
:1048F000864B0EF081FB02460B46304639460EF0E1
:10490000C9F90646E07E0F460EF000FB02460B4654
:10491000304639460EF0BEF975A3D3E900230EF0F8
:104920006BFB0646607D0F460EF0F0FA0022774BD7
:104930000EF062FB8046A07D89460EF0E7FA024643
:104940000B46404649460EF0A5F902460B46304656
:1049500039460EF09FF900226D4B0EF077FC0646AB
:10496000E07C0F460EF0D2FA0022684B0EF044FBBA
:104970008046207D89460EF0C9FA02460B46404625
:1049800049460EF087F902460B46304639460EF08E
:1049900081F90B460246C5E90423637F532B5D4B27
:1049A00002BF01F100412861696103F10A0113F8B6
:1049B000012F02F00F028B421A70F8D1E07F0EF047
:1049C000A5FA0022504B0EF017FB064694F8200083
:1049D0000F460EF09BFA00224C4B0EF00DFB0246E8
:1049E0000B46304639460EF055F9064694F821003C
:1049F0000F460EF08BFA02460B46304639460EF053
:104A000049F9064694F822000F460EF07FFA00227C
:104A10003E4B0EF0F1FA804694F8230089460EF0E2
:104A200075FA02460B46404649460EF033F900221D
:104A3000374B0EF00BFC02460B46304639460EF063
:104A400029F9824694F825008B460EF05FFA002281
:104A50002C4B0EF0D1FA064694F826000F460EF0C5
:104A600055FA0022284B0EF0C7FA02460B46304694
:104A700039460EF00FF9804694F8270089460EF06B
:104A800045FA0022214B0EF0B7FA064694F82800AA
:104A90000F460EF03BFA02460B46304639460EF002
:104AA000F9F802460B46404649460EF0F3F810A3CB
:104AB000D3E900230EF0A0FA0022154B0EF0C6FB3E
:104AC00002460B46504659460EF0E4F80B460246A5
:104AD000C5E9082394F82A30094E572B02BF01F18B
:104AE000004130627162BDE8F88F00BFAFF3008013
:104AF0002D431CEBE2361A3F5625002044250020AA
:104B0000000C002000408F4000005940000024406D
:104B100000004E406225002010B50CF07DFA0B49D4
:104B200000220B4BD1E902010EF0CEFC094C20B162
:104B300009480FF075FC208002E04FF6FF732380D8
:104B40000CF072FAB4F9000010BD00BF000C002098
:104B50000000F03F180000207B25002070B51646AD
:104B6000F0B1EAB101291BDD90F900300025A3F175
:104B7000240253425341C2565C1C2A2A05D0554098
:104B8000A142EDB22346F6DC0AE0280905F001FF58
:104B9000307005F00F0005F0FCFE7070204670BD0F
:104BA0004FF0FF3070BD10B5114C05221149204661
:104BB0000FF072FF28B994F82C300022302B0AD95C
:104BC0000BE005220C4920460FF066FF48B9637CD4
:104BD0000022412B01D0002300E0084B0849C1E925
:104BE0000223FFF75BFEBDE81040FFF713BE00BFD6
:104BF000442500200C520108125201080000F03F29
:104C0000000C002073B590F900300446242B0D46AB
:104C100002D0FEF77EFA1EE001AAFFF79FFF0028F0
:104C200019DB023DA84216DA22569DF904309A4259
:104C300011D1204490F901209DF905309A420AD102
:104C40002246002012F9011F431C2C29DBB204D09C
:104C5000072B1846F6D100203DE22146BA4D11F847
:104C6000012F05F8012F0A1BD2B29342F7D8023068
:104C7000C6B20522B549B6480FF00EFFB44D002864
:104C800040F03681731E234413F9012F01302C2A82
:104C9000C0B202D00C28F7D1DDE70023F218D2B25F
:104CA000A25CE91801338A71DAB29042F6D8304436
:104CB000C0B2421E2244002312F9011F01332C29E5
:104CC000DBB202D00B2BF7D1C5E700228118C9B2A5
:104CD000615CAE180132F174D1B28B42F6D818443F
:104CE000C0B2431E2344002213F9011F01322C29B4
:104CF000D2B202D0032AF7D1ADE7235C012A6B7749
:104D000000F10103DBB218BFE15C104418BF904B07
:104D1000C0B218BF9977431E2344002213F9011F24
:104D200001322C29D2B202D00C2AF7D193E700230A
:104D3000C118C9B2615CEE180133F177D9B28A4269
:104D4000F6D81044C2B2511E2144002311F9010FBC
:104D500001332C28DBB202D0032BF7D17BE7A15C17
:104D6000012B85F82A1002F10101C9B218BF605C5D
:104D7000134418BF7649DBB218BF81F82B00591EC7
:104D80002144002211F9010F01322C28D2B202D0A5
:104D9000032AF7D15FE7E15C012A85F82C1003F1C3
:104DA0000101C9B218BF605C134418BF6849DBB287
:104DB00018BF81F82D00591E2144002211F9010F5E
:104DC00001322C28D2B202D0042AF7D143E70021C5
:104DD0005818C0B2205C6E18013186F82E00C8B297
:104DE0008242F5D81344DBB2591E2144002211F946
:104DF000010F01322C28D2B202D0072AF7D12AE7BC
:104E000000215818C0B2205C6E18013186F83100BC
:104E1000C8B28242F5D81344DBB2591E21440022A5
:104E200011F9010F01322C28D2B202D0092AF7D190
:104E300011E7474E00201918C9B2615C851901308D
:104E400085F83710C1B28A424149F4D81344DBB225
:104E5000581E2044002210F9015F01322C2DD2B2DD
:104E600002D0032AF7D1F6E6E05C012A81F83F0080
:104E700003F10100C0B218BF255C134418BF3448C9
:104E8000DBB218BF80F84050581E2044002210F9B1
:104E9000015F01322C2DD2B202D0092AF7D1DAE615
:104EA00000201D18EDB2655D0E18013086F84150E6
:104EB000C5B2AA42F5D81344DBB2581E20440022E2
:104EC00010F9015F01322C2DD2B202D0032AF7D1A2
:104ED000C1E6E05C0133DBB2012A81F849001EBF64
:104EE000E25C1B4B83F84A20FFF75DFE0120F2E0F5
:104EF0000522184928460FF0CFFD00287FF4ABAEFD
:104F0000731E234413F9012F01302C2AC0B202D0A2
:104F10000C28F7D19FE60023F218D2B2A25CE91860
:104F200001338A71DAB28242F6D33044C0B2431EF2
:104F30002344002213F9011F01322C29D2B20BD0D5
:104F4000032AF7D187E600BF432500200C52010851
:104F50004425002012520108235C012A6B7400F1E1
:104F60000103DBB218BFE15C104418BF5B4BC0B259
:104F700018BF9974431E2344002213F9011F013204
:104F80002C29D2B202D00B2AF7D164E60023C11833
:104F9000C9B2615CEE180133F174D9B28A42F6D815
:104FA0001044C2B2511E2144002311F9010F0133F4
:104FB0002C28DBB202D0032BF7D14CE6A15C012BED
:104FC000697702F10101C9B218BF605C1A4418BFC9
:104FD0004249D2B218BF8877511E2144002311F9EB
:104FE000010F01332C28DBB202D00C2BF7D132E6B3
:104FF00000215018C0B2205C6E180131F077C8B2A1
:105000008342F6D81A44D3B2591E2144002211F922
:10501000010F01322C28D2B202D0032AF7D11AE6AE
:10502000E15C012A85F82A1003F10101C9B218BF19
:10503000605C134418BF2949DBB218BF81F82B000C
:10504000591E2144002211F9010F01322C28D2B23D
:1050500002D0092AF7D1FEE500215818C0B2205C21
:105060006E18013186F84B00C8B28242F5D813445D
:10507000DBB2591E2144002211F9010F01322C2804
:10508000D2B202D0092AF7D1E5E500215818C0B202
:10509000205C6E18013186F85300C8B28242F5D800
:1050A0001344DBB2591E2144002211F9010F0132D1
:1050B0002C28D2B202D0092AF7D1CCE5074E002124
:1050C0005818C0B2205C8D19013185F85B00C8B258
:1050D0009042F5D308E702B070BD00BF4425002020
:1050E0004FF6FF72064B00201A80064B002100226B
:1050F000C3E90401C3E908019A619A62704700BFDD
:1051000018000020000C0020F8B50C4D07460E4694
:10511000D5E9020100220A4B0EF0D6F9044618B96F
:10512000FFF7DEFF204600E00120D5E90423C7E9B0
:105130000023D5E90823C6E90023F8BD000C0020B0
:105140000000F03FF8B50C4D07460E460BF064FF2B
:10515000D5E902010022094B0EF0B6F9044610B958
:10516000FFF7BEFF00E00124AB693B60AB6A336030
:105170000BF05AFF2046F8BD000C00200000F03F65
:10518000082809D8012303FA00F040F2E313034092
:10519000181C18BF012070470020704708B5082868
:1051A0001ED8DFE800F005091D1D1D0D11151900A1
:1051B000084608F043FC08BD08460AF0F3FB08BDAA
:1051C000084607F005FF08BD084603F0F5FD08BDD9
:1051D000084609F035FE08BD08460CF0C3FA08BDC4
:1051E000002008BD082818D8DFE800F005081717C8
:1051F000170B0E111400084608F09ABC08460AF076
:1052000039BC084607F046BF084603F037BE0846DB
:1052100009F080BE08460CF005BB7047082818D876
:10522000DFE800F005081717170B0E1114000846E9
:1052300008F090BC08460AF02FBC084607F03CBFB7
:10524000084603F02DBE084609F076BE08460CF06D
:10525000FBBA70470B461146082818D8DFE800F063
:1052600005081717170B0E111400184608F09ABC02
:1052700018460AF079BC184607F04CBF184603F0F0
:105280003DBE184609F086BE18460CF045BB00200E
:105290007047082818D8DFE800F005081717170B23
:1052A0000E111400084609F087B808460AF07DBCC4
:1052B000084608F021BB084604F0D6B908460AF0B3
:1052C0003BBA08460CF04BBB7047082818D8DFE8FB
:1052D00000F005081717170B0E111400084608F008
:1052E00084BC08460AF062BC084607F037BF08468F
:1052F00003F026BE084609F073BE08460CF030BB2A
:105300000020704710B50C4611461A46029B08282B
:1053100024D8DFE800F0050A2323230F14191E0008
:105320002046BDE8104008F077BC2046BDE810409C
:105330000AF06CBC2046BDE8104007F025BF2046AF
:10534000BDE8104003F012BE2046BDE8104009F051
:105350005DBE2046BDE810400CF032BB002010BD01
:1053600010B50C4611461A46029B082824D8DFE8DF
:1053700000F0050A2323230F14191E002046BDE860
:10538000104008F09FBC2046BDE810400AF082BCE7
:105390002046BDE8104007F035BF2046BDE810406C
:1053A00003F022BE2046BDE8104009F06DBE204645
:1053B000BDE810400CF048BB10BD0B461146082854
:1053C00018D8DFE800F005081717170B0E111400A6
:1053D000184608F0AFBC18460AF08EBC184607F015
:1053E00049BF184603F032BE184609F085BE18467C
:1053F0000CF05CBB0020704710B40C4611461A46F6
:1054000008281ED8DFE800F005091D1D1D0D111527
:105410001900204610BC08F001BD204610BC0AF05F
:10542000BBBC204610BC07F099BF204610BC03F05F
:1054300059BE204610BC09F0D1BE204610BC0CF06D
:1054400085BB002010BC704730B5049D0C4611464A
:105450001A46039B08282AD8DFE800F0050B292903
:105460002911171D230003952046BDE8304008F0A0
:1054700069BD03952046BDE830400AF0F9BC0395AC
:105480002046BDE8304007F0FDBF03952046BDE84B
:10549000304003F0A9BE03952046BDE8304009F036
:1054A0001DBF03952046BDE830400CF0E5BB002051
:1054B00030BD082818D8DFE800F005081717170BCB
:1054C0000E111400084608F0E9BD08460AF0A0BD18
:1054D000084608F079B8084603F02ABF084609F0E4
:1054E000A1BF08460CF098BC00207047082818D8C7
:1054F000DFE800F005081717170B0E111400084617
:1055000008F095BF08460AF0BFBD084608F02FBA5C
:10551000084604F0E4B808460AF049B908460CF019
:10552000BDBC00207047082818D8DFE800F0050847
:105530001717170B0E111400084608F0D1BD0846C6
:105540000AF0A4BD084608F061B8084603F012BF8F
:10555000084609F089BF08460CF0A2BC002070473D
:10556000082818D8DFE800F005081717170B0E11E8
:105570001400084608F0B6BD08460AF08ABD084681
:1055800008F047B8084603F0F8BE084609F06FBFB8
:1055900008460CF088BC00207047082818D8DFE8BF
:1055A00000F005081717170B0E111400084608F035
:1055B000B5BD08460AF06FBD084608F04BB808466E
:1055C00003F0F6BE084609F06DBF08460CF06DBC4E
:1055D00000207047082818D8DFE800F005081717E2
:1055E000170B0E111400084608F09ABD08460AF081
:1055F0005FBD084608F04DB8084603F0F8BE0846FF
:1056000009F06FBF08460CF057BC704710B50C4648
:1056100011461A46029B082824D8DFE800F0050A44
:105620002323230F14191E002046BDE8104008F064
:1056300097BD2046BDE810400AF05ABD2046BDE89F
:10564000104008F045B82046BDE8104003F0EEBE1B
:105650002046BDE8104009F063BF2046BDE8104079
:105660000CF04ABC002010BD082818D8DFE800F074
:1056700005081717170B0E111400084608F022BE74
:1056800008460AF0D7BD084608F0B4B8084603F04B
:105690007FBF084609F0D6BF08460CF0D5BC0320F2
:1056A0007047082818D8DFE800F005081717170B0F
:1056B0000E111400084608F069BE08460AF0BCBD89
:1056C000084608F003B9084603F0B8BF08460AF0D8
:1056D0001DB808460CF0BABC00207047082818D83E
:1056E000DFE800F005081717170B0E111400084625
:1056F00008F0C4BE08460AF0A1BD084608F05EB92D
:10570000084604F013B808460AF078B808460CF0CA
:105710009FBC704710B40C4611461A4608281ED884
:10572000DFE800F005091D1D1D0D111519002046AB
:1057300010BC08F0C9BE204610BC0AF0A5BD20462A
:1057400010BC08F061B9204610BC04F029B820460E
:1057500010BC0AF079B8204610BC0CF0BBBCC8B233
:1057600010BC7047044B9A6942F080529A619A6962
:1057700022F080529A617047003802404FF48073E3
:1057800093FAA3F3B3FA83F39B0003F1844303F585
:10579000602301221A6070474FF4807393FAA3F3D9
:1057A000B3FA83F39B0003F1844303F560230022E3
:1057B0001A60704718490B6823F0E002036813432E
:1057C0000B60164B5A6822F480325A601A6822F431
:1057D00080321A609A6822F480329A60DA6822F481
:1057E0008032DA604268D10342BF196841F48031E7
:1057F0001960900342BF596841F480315960D10764
:1058000042BF996841F480319960920742BFDA68DB
:1058100042F48032DA6070470070004000040140BA
:10582000102393FAA3F3B3FA83F39B0003F18443A9
:1058300003F5602301221A607047102393FAA3F343
:10584000B3FA83F39B0003F1844303F56023002242
:105850001A60704790FAA0F0B0FA80F0024B012273
:1058600043F82020704700BF80000E4290FAA0F05D
:10587000B0FA80F0024B002243F82020704700BFAE
:1058800080000E42094A0129136823F0030340EA0D
:1058900003001060064A136923F00403136101D169
:1058A00030BF704740BF20BF20BF7047007000402E
:1058B00000ED00E00B4A0129136823F0030340EADE
:1058C0000300094B10601A6942F004021A6101D109
:1058D00030BF02E040BF20BF20BF1A6922F004029F
:1058E0001A6170470070004000ED00E0054A13683F
:1058F00043F002031360044A136943F00403136185
:1059000030BF70470070004000ED00E0024A1369AC
:1059100043F002031361704700ED00E0024A13698F
:1059200023F002031361704700ED00E0024A13699F
:1059300043F010031361704700ED00E0024A136961
:1059400023F010031361704700ED00E0704710B5BD
:10595000044C6369DB0304D5FFF7F8FF4FF4803391
:10596000636110BD000401402DE9F04104460E467C
:1059700090461D4609F0B0FF0746B8F1000F3AD136
:105980002268936836EA03030ED0691CF9D07DB112
:1059900009F0A2FFC01B8542F2D209E06B1C06D1C0
:1059A000936836EA0303F9D00020BDE8F081EDB931
:1059B00023685A6822F0E0025A601A6822F0400216
:1059C0001A60A26AB2F5005F07D11A6822F4005289
:1059D0001A601A6842F400521A60012384F85130A8
:1059E000002384F850300320BDE8F08109F074FFF3
:1059F000C01B8542DCD32268D2E701207047704784
:105A0000704710B5044668B10268136823F040037C
:105A10001360FFF7F5FF0020606584F8500084F8FC
:105A2000510010BD012010BD37B5044690F851005B
:105A30001D46C0B2012840F0A580002900F0A380D7
:105A4000002A00F0A08094F85030012B00F09A80DA
:105A5000122384F8513000236365E364E286A36473
:105A6000A363A387E387A36A84F85000B3F5005FBC
:105A70002163A286236807D11A6822F400521A60B3
:105A80001A6842F400521A60A268E068B2F5004F4A
:105A900002BF1A6842F480421A601A6852065EBF5A
:105AA0001A6842F040021A606268F8B91AB1E28ED0
:105AB00092B2012A07D14A1C22630A78DA60E38E87
:105AC000013B9BB2E386E38E9BB2002B2CD02B468E
:105AD000002202212046FFF747FF002839D1236B1F
